:020000040800F2
:10000000D0620020AD010008A7440008673800084E
:10001000A5440008CB070008FB71000800000000A1
:10002000000000000000000000000000375200083F
:10003000610800080000000019460008435200084B
:10004000C7010008C7010008C7010008C701000870
:10005000C7010008C7010008C7010008C701000860
:10006000C7010008C7010008C7010008C701000850
:10007000C7010008C7010008C7010008C701000840
:10008000D9070008C7010008C701000800000000E8
:10009000000000000000000000000000C701000890
:1000A000E55200081D53000801530008C70100086D
:1000B000C7010008C7010008C7010008C701000800
:1000C000C7010008C7010008C7010008C7010008F0
:1000D000C7010008815800088D5800080000000082
:1000E000C7010008C7010008C701000800000000A0
:1000F000000000000000000000000000C701000830
:1001000000000000C7010008C7010008C70100087F
:1001100000000000000000000000000000000000DF
:10012000C7010008C7010008C7010008C70100088F
:10013000C7010008000000000000000000000000EF
:10014000000000000000000000000000A9440008BA
:10015000C7010008C7010008C7010008C70100085F
:10016000C7010008C70100080000000000000000EF
:10017000000000000000000000000000000000007F
:1001800000000000C701000800000000000000009F
:10019000C7010008C7010008DFF80CD000F0D8FA4A
:1001A00000480047ED830008D062002006488047E1
:1001B00006480047FEE7FEE7FEE7FEE7FEE7FEE74C
:1001C000FEE7FEE7FEE7FEE7D552000899010008CA
:1001D0002DE9F05F0546002092469B46884606467C
:1001E000814640241BE0284641464746224600F00F
:1001F000FFF953465A46C01A914110D3114618468A
:10020000224600F0E6F92D1A67EB01084F46224618
:100210000120002100F0DDF917EB00094E41201EFE
:10022000A4F10104DFDC484631462A464346BDE8D6
:10023000F09F40EA01039B0703D009E008C9121FA1
:1002400008C0042AFAD203E011F8013B00F8013B90
:10025000521EF9D27047D2B201E000F8012B491EBC
:10026000FBD270470022F6E710B513460A46044653
:100270001946FFF7F0FF204610BD10B5002200E040
:10028000521C835C8C5CA34201D1002BF8D1D8B204
:10029000E1B2401A10BD2DE9FE4F804681EA03000D
:1002A000C00F0C46009021F0004123F00045B8EB50
:1002B0000200A94105D24046214690461C460B4605
:1002C000024623F00040104347D0270DC7F30A0031
:1002D000C3F30A510290401A019040286BDAC3F32D
:1002E000130040F4801B0098924620B10023D2EB0B
:1002F000030A63EB0B0B01985946C0F140025046CC
:1003000000F067F906460D4650465946019A00F03E
:100310007FF910EB08006141002487EA115284EA5A
:10032000E7731A4340D0009A62B3019A012A4FEA58
:10033000075215DC001B61EB02014FF0004202EA9C
:100340000752CDE90042001C41F5801132462B4690
:1003500000F07FF903B0BDE8F08F40462146F9E791
:10036000001B61EB0201001C41F5801300185B418A
:100370002018A2F5001747EB030140EAD570B61923
:100380006D4111E06D084FEA360645EAC0754FEA47
:100390000752001B61EB0201001C41F58011490866
:1003A0004FEA30000019514132462B4603B0BDE8F8
:1003B000F04F00F03FB90098012240000023D0EB3D
:1003C000020263EBE073009821464FEAE074B8EB59
:1003D000000061EB0401E9E783F000435BE781F093
:1003E000004158E72DE9FE4F81EA030404F0004480
:1003F00021F0004100944FF0000B23F0004350EA3D
:1004000001045ED052EA03045BD0C3F30A54C1F383
:100410000A552C44A4F2F3340194A0FB0254C1F316
:10042000130141F48011C3F3130343F4801301FB60
:10043000024400FB034E840A970A44EA815447EAC7
:100440008357A4FB076802958D0A05FB07854FEAD1
:10045000932C04FB0C542705029D4FEA065847EAEB
:100460001637B5EB08056EEB070C870E920E47EAC0
:10047000811742EA8312A7FB0201B6EB0B0164EB82
:1004800000042B0D43EA0C335E1844EB1C50DA4693
:100490005146E7FB0201C5F313044FEA0B3343EA6D
:1004A00014534FEA0432019C43EA0603A4F10C04FE
:1004B0000294009CCDE900B400F0CBF803B0BDE895
:1004C000F08F00200146F9E72DE9F04D81EA0304A1
:1004D00004F0004B21F0004514464FF0000A23F0D1
:1004E000004150EA050220D054EA01021DD0C5F3B4
:1004F0000A570246C5F31303C1F31300C1F30A56AA
:1005000040F4801543F48013A7EB0608101BD64671
:1005100008F2FD3873EB050002D308F1010801E091
:1005200092185B41B8F1000F03DA00200146BDE8E4
:10053000F08D00204FF48011064684460EE0171B14
:1005400073EB050705D3121B63EB050306434CEA67
:10055000010C49084FEA300092185B4150EA01074C
:10056000EDD152EA030012D082EA040083EA0501C9
:10057000084305D0101BAB4106D20122002306E040
:1005800000224FF0004302E06FF0010253101AEB1B
:1005900006004CEB085110EB0A0041EB0B01BDE8E3
:1005A000F04D00F047B830B50B4601460020202240
:1005B000012409E021FA02F59D4205D303FA02F570
:1005C000491B04FA02F52844151EA2F10102F1DCD0
:1005D00030BD202A04DB203A00FA02F100207047E7
:1005E0009140C2F1200320FA03F319439040704771
:1005F000202A04DB203A21FA02F00021704721FA78
:1006000002F3D040C2F120029140084319467047DE
:10061000202A06DBCB17203A41FA02F043EAE073C6
:1006200006E041FA02F3D040C2F1200291400843B3
:100630001946704710B5141E73F1000408DA401C07
:1006400041F1000192185B411A4301D120F00100F1
:1006500010BD2DE9F04D92469B4611B1B1FA81F2E1
:1006600002E0B0FA80F220329046FFF7B2FF044673
:100670000F4640EA0A0041EA0B0153465A46084336
:1006800013D0114653EA010019D0C8F14002504678
:10069000FFF7AEFF05460E46504659464246FFF765
:1006A00098FF084305D0012004E020463946BDE804
:1006B000F08D0020054346EAE0762C4337430A9844
:1006C0006305E40AA0EB08000022FD0A44EA47544F
:1006D0000A3002D500200146E9E7010510196941F9
:1006E000DDE9084500196941BDE8F04DA2E7C1F315
:1006F0000A52C1F3130140F2FF3341F480119A42D0
:1007000002DA00200146704740F233439A42A2F2D7
:10071000334202DC5242FFF76BBFFFF75ABF0000C3
:1007200030B5041E71F1000404DB4FF00044404278
:1007300064EB0101141E73F1000405DB1C464FF04D
:100740000043524263EB0403994208BF904230BD1C
:10075000064C074D06E0E06840F0010394E807000E
:1007600098471034AC42F6D3FFF71AFDFC9400080A
:100770001C95000870B58C1810F8015B15F0070384
:1007800001D110F8013B2A1106D110F8012B03E02A
:1007900010F8016B01F8016B5B1EF9D12B0705D432
:1007A0000023521E0DD401F8013BFAE710F8013B7B
:1007B000CB1A921C03E013F8015B01F8015B521E97
:1007C000F9D5A142D8D3002070BDFEE7014601480B
:1007D00008F026BCF4040020014800F0D1B8000065
:1007E0006802002001681823CAB2103AB2FBF3F283
:1007F000054B6FF30901032A9B5CC36500D9091DF2
:1008000081650846704700001C92000810B501463B
:1008100000208B698A6A4FF0C07453B1B3F5005F52
:1008200015D072B1012A0CD0022A0AD0032A09D1AC
:1008300004E01AB1012A06D0022A03D1C96AC9010B
:1008400000D5012010BDC96AA142FAD010BD002A0E
:10085000F7D0012AF2D0022AF3D0032AF3D010BD38
:10086000704772B6FEE72DE9F0410446876D00F04F
:1008700025FB054694F835000026022806D0802086
:10088000606584F834600120BDE8F081206801686B
:1008900021F0160101602068416921F08001416169
:1008A000206C08B9A06C20B12068016821F0080113
:1008B00001602068016821F0010101600CE000F096
:1008C000FDFA401B052807D920206065032084F825
:1008D000350084F83460D7E720680068C007EED19F
:1008E00094F85C103F208840B860012084F83500FF
:1008F00084F834600020C7E790F83510022903D04F
:100900008021416501207047052180F8351000687D
:10091000016821F0010101600020704770B50400FA
:100920002BD094F83500022826D02068016821F0E9
:10093000010101602068002505602068456020688D
:1009400085602068C56020680561216821204861B4
:100950002046FFF747FFE56325646564A564E56409
:10096000256594F85C203F2191408160656584F89D
:10097000355084F83450002070BD012070BD000057
:100980002DE9F84304464FF00009CDF80090634884
:100990004FF41651A56D0068B0FBF1F72E6894F87E
:1009A0005C20082101FA02F030420FD02068026872
:1009B00052070BD5026822F00402026094F85C0032
:1009C0008140A960606D40F00100606594F85C10A2
:1009D0004FF0010808FA01F0304208D02168496957
:1009E000090604D5A860606D40F00200606594F8C7
:1009F0005C1004208840304208D0216809688907CB
:100A000004D5A860606D40F00400606594F85C1047
:100A100010208840304218D021680968090714D591
:100A2000A86020680168490304D50068000308D560
:100A3000A16C07E00168C90503D4016821F0080131
:100A40000160216C09B12046884794F85C10202091
:100A50008840304231D021680968C9062DD5A86088
:100A600094F8350005282068016806D0490347D569
:100A7000006800031DD4616C1CE021F016010160C8
:100A80002068416921F080014161206C08B9A06CA7
:100A900020B12068016821F00801016094F85C1021
:100AA0003F208840A86084F8358084F83490216D18
:100AB0001FE0E16B09B120468847606D00282BD00C
:100AC000606DC00714D0052084F8350020680168E7
:100AD00021F0010101600098401C0090B84203D849
:100AE00020680068C007F6D184F8358084F8349017
:100AF000E16C002910D001B02046BDE8F043084762
:100B00000168C905D5D4016821F01001016084F89D
:100B1000358084F83490CCE7BDE8F8830C000020E1
:100B20002DE9F041044600F0C9F905465CB1022008
:100B300084F83500002684F834602068016821F0CC
:100B4000010101600DE00120BDE8F08100F0B6F97F
:100B5000401B052805D920206065032084F8350056
:100B6000F2E720680068C007F0D121680A682048D1
:100B70000240D4E901031843D4E903352B43184359
:100B800063691843A3691843E3691843236A184348
:100B90001043626A042A03D1D4E90B231A43104399
:100BA000086020684069656A20F0070128460D4307
:100BB000012704280CD1A06A0543E06A40B1204611
:100BC000FFF724FE20B14020606584F83570BAE755
:100BD000206845612046FFF705FE94F85C203F2120
:100BE00091408160666584F835700020ACE70000B4
:100BF0003F8010F070B5044600F060F90546601CB7
:100C000002D004480078044400F058F9401BA04288
:100C1000FAD370BD000000202DE9F04F8946DFF8BF
:100C2000D0A000214FF0010B4FF00F0C0BFA01F692
:100C300009EA0603B34256D121F003045444D4F820
:100C400008288D072F0F0CFA07F505EA0208294A34
:100C5000904201D1002214E0274A904201D10122A2
:100C60000FE0264A904201D102220AE0244A904233
:100C700001D1032205E0234A904201D1042200E081
:100C80000722BA40424515D11F4F3A689A433A604D
:100C90003F1D3A689A433A601B4F0C373A689A43B3
:100CA0003A603F1F3A689A433A60D4F80828AA434A
:100CB000C4F8082803684C000322A2409343036051
:100CC000CB0800EB83031D6A4C07E70E0CFA07F410
:100CD000A5431D62C3689343C3604368B343436045
:100CE000836893438360491C10299FD3BDE8F08F2C
:100CF00000300140000002400004024000080240B1
:100D0000000C024000100240003C01402DE9F84F69
:100D1000DFF87C910022A9F1040B03274FF00F0CA0
:100D200009F1040AABF1040E01250B6895402B4034
:100D3000AB426ED10C7904F00304012C01D0022CDB
:100D400015D18668540007FA04F826EA0806D1F897
:100D50000C8008FA04F848EA0608C0F808804468DD
:100D6000AC430D79C5F300159540254345600C79DA
:100D7000E443A40708D0C568540007FA04F6B54355
:100D80008E68A6402E43C6600C7904F00304022C42
:100D900011D1D40800EB8406356A5407E40E0CFA2E
:100DA00004F825EA0805D1F8108008FA04F848EAA2
:100DB0000508C6F820800568540007FA04F6B54314
:100DC0000E7906F00306A6402E4306604C6814F424
:100DD000403F57D02F4C256845F480452560246856
:100DE00022F0030504F4804400942B4C05EB040826
:100DF000D8F808589407260F0CFA06F4A543274C98
:100E0000A04201D1002415E0254CA04202D10124CA
:100E100010E037E0234CA04201D102240AE0224C2A
:100E2000A04201D1032405E0204CA04201D10424BA
:100E300000E00724B4402C43C8F80848D9F8004023
:100E40004D464E689C43F60200D51C432C60DAF8F0
:100E5000004055464E689C43B60200D51C432C60AA
:100E6000DBF800405D464E689C43B60300D51C434A
:100E70002C60DEF8004075464E689C43F60300D5B2
:100E80001C432C60521C102AFFF44EAFBDE8F88FB3
:100E9000083C01404438024000300140000002405C
:100EA0000004024000080240000C02400010024012
:100EB0000AB1816170470904FBE7000001488068BE
:100EC000704700000000002070B5040025D094F8A1
:100ED0003D00002520B984F83C50204600F04CFA33
:100EE000242084F83D002068016821F001010160A0
:100EF0002068016841F4004101602068016821F424
:100F00000041016001F038F94D4B6168994201D808
:100F10004C4900E04C49884201D2012070BD4B4948
:100F20002268B0FBF1F1566826F03F060E4356608A
:100F300062689A4206D94FF4967251434FF47A721E
:100F4000B1FBF2F12268491C166A26F03F063143D4
:100F500011626168994210D84900401EB0FBF1F25D
:100F6000521CC2F30B02042A01D2042022E0B0FB7F
:100F7000F1F0401CC0F30B001CE0A268F2B301EBDF
:100F8000C10303EB0116431EB3FBF6F35B1C43F4F2
:100F900080431B0549D092B301EBC10202EB011162
:100FA000401EB0FBF1F0401CC0F30B0040F4804049
:100FB00040F400402168CA694CF6FF739A4310431D
:100FC000C861D4E9071001432068026822F0C0021A
:100FD00011430160D4E9030101432068826848F2AB
:100FE000FF339A4311438160D4E90510014320681F
:100FF000C26822F0FF021143C16001E00EE016E07A
:101000002068016841F0010101602564202084F816
:101010003D00256384F83E50002070BD01EB410681
:10102000431EB3FBF6F35B1CB3E70120C2E701EB01
:101030004101401EB0FBF1F0401CC0F30B00B7E7CC
:10104000A086010080841E0000093D0040420F0080
:101050002DE9FF4F83B09A46DDE911979346044688
:10106000DDF84080FFF72AFF054694F83D00202870
:1010700070D11923012271492046009502F004FD28
:101080000028F5D194F83C00012863D0012084F8B1
:101090003C0020680168C90703D1016841F00101E3
:1010A00001602068016821F400610160222084F859
:1010B0003D00402084F83E0000262664C4F82480C9
:1010C000A4F82A90608D20855D48E062CDE9007526
:1010D00053465A462046049902F0DEFB00287CD194
:1010E000208DD0B1012821D00228206824D0416968
:1010F00080690090208D032869D801282BD05149A0
:1011000002283B464FF00002009559D08846204601
:1011100002F0BAFC002860D13CE020684169816996
:101120000091016841F40071016077E02068016876
:1011300021F480610160F0E7016821F480610160C1
:101140002068016841F4006101602068416980699C
:10115000009063E06FE02A463946204602F014FD15
:1011600098BB20680069616A08704EE020680168D9
:1011700041F40071016020680069616A0870606A6A
:10118000401C6062218D491E2185618D491E61854B
:10119000216838E02068016821F4806101602068DE
:1011A0000069616A0870606A401C6062208D401EA0
:1011B0002085608D401E60853B460022414600959B
:1011C000204602F061FC00B9D0E706E0FFE72A46BE
:1011D0003946204602F0D8FC18B1012007B0BDE81E
:1011E000F08F20680069616A0870606A401C606264
:1011F000218D491E2185618D491E618521684A69BD
:10120000D24352070AD409690170606A401C6062C7
:10121000208D401E2085608D401E6085208D002819
:101220007FF468AF202084F83D0084F83E6084F8A5
:101230003C600020D2E70220D0E70000020010004E
:101240000000FFFF040001002DE9FF4F83B09A4624
:10125000DDE9119793460446DDF84080FFF72EFE46
:10126000054694F83D0020287FD1192301224049EA
:101270002046009502F008FC002876D194F83C0046
:10128000012872D0012084F83C0020680168C90759
:1012900003D1016841F0010101602068016821F477
:1012A00000610160212084F83D00402084F83E0068
:1012B00000262664C4F82480A4F82A90608D208536
:1012C0002C48E062CDE9007553465A462046049901
:1012D00002F060FB70B930E02A463946204602F041
:1012E00088FC58B1206C042804D12068016841F4BE
:1012F00000710160012007B0BDE8F08F606A2168CD
:1013000000780861626A521C6262208D401E80B2C1
:101310002085618D491E618521684B69DB435B0730
:101320000BD468B110780861606A401C6062208D3F
:10133000401E2085608D401E6085208D0028CBD109
:101340002A463946204602F079FB0028CAD154F8D3
:101350003D0B016841F400710160202004F81E0972
:10136000E67766770020C6E7FFE70220C3E70000C4
:10137000020010000000FFFF10B586B004461421E3
:101380006846FEF76FFF14492068884221D1134850
:101390000021026842F002020260006800F00200D0
:1013A00005904FF4407000901220CDE90101032018
:1013B00003900420049069460948FFF7A7FC0748FA
:1013C0001030016841F400110160006800F4001061
:1013D000059006B010BD00000054004030380240B7
:1013E000000402400248816802781144816070471D
:1013F000000000200B4810B5016841F40071016045
:10140000016841F480610160016841F4807101600C
:10141000032000F095F80F2000F006F800F04AF8DD
:10142000002010BD003C024030B505461C4887B086
:101430000024016841F400310160006805A900F44E
:1014400000300690684600F071FE00F0A5FE1549D8
:10145000154AB0FBF1F11548491E026040F2E7322F
:10146000C0E90324C0E90114846101F049FC0400CF
:1014700012D10E4801F0C2FC04000DD1192000F079
:1014800031F8102D07D200222946192000F038F833
:101490000748056000E0012407B0204630BD000089
:1014A0004438024040420F000044014070040020D4
:1014B000040000200A4808B5016841F48041016039
:1014C000006800F4804000900548001F016841F06A
:1014D00080510160006800F08050009008BD00005D
:1014E00044380240002809DB00F01F02012191402E
:1014F0004009800000F1E020C0F8001170470000B2
:10150000F0B40E4B1B68C3F30223C3F10704042C91
:1015100000D904241D1D072D01D2002300E0DB1E8D
:10152000012606FA04F56D1E0D409D409E40761E74
:10153000164045EA0601F0BC05F072BE0CED00E075
:10154000064A00F0070110684FF6FF03184040EA12
:101550000120034908431060704700000CED00E0D3
:101560000000FA0570470068416200207047F0B53E
:101570000368586A39B19C6A4FF4827500EB1444D1
:1015800000204E1E0AE040EA024098620FE005EBA0
:101590008007DF59401C04EB1744C0B2B042F6D3B9
:1015A00044EA02404FF4807202EB8101585000205F
:1015B000F0BDD0F8080504F0BDBB01EBC10200EBA3
:1015C0008202D0F80805D26C04F010BB01EBC10216
:1015D00000EB8202D0F80805D2F88C2204F05FBB41
:1015E000D0F8080504F0A8BB0A0601F00F0101EBD2
:1015F000C10100EB810101D53C3101E001F51F7112
:10160000006805F045BC70B504460B0601F00F00FC
:1016100000EBC00104EB81014FF001024FF0000527
:1016200003D581F83D203C3103E081F87D5201F57E
:101630001F71087094F8BC04012808D084F8BC24F9
:10164000206805F0DDF884F8BC54002070BD02204D
:1016500070BD70B5044601F00F006268904201D978
:10166000012070BD0B0601F00F0101EBC10104EB7D
:1016700081014FF001024FF0000503D581F83D20B4
:101680003C3103E081F87D5201F51F718D700870C7
:1016900094F8BC04012808D084F8BC24206805F024
:1016A000ADFA84F8BC54002070BD022070BD10B5A6
:1016B000044690F8BC0401280AD0012084F8BC0438
:1016C000080607D501F00F01206805F053FC04E07F
:1016D000022010BD206805F02FFC002084F8BC0417
:1016E00010BD01F00F0101EBC10100EB8100D0F84A
:1016F0009C0270472DE9F04104460F0601F00F00EF
:1017000000EBC00104EB81014FF001064FF0000532
:1017100003D581F83D603C3103E081F87D5201F54D
:101720001F710870CA600B714A7802B10881022BE0
:1017300000D14D7194F8BC04012809D084F8BC6430
:10174000206804F0B5FF284684F8BC54BDE8F08159
:101750000220FBE770B50D4601F00F0404EBC40155
:1017600000EB8101C1F89432C1F88C220023C1F84A
:101770009C3281F87D3281F87C42036901F51F714A
:10178000012B00D14A612A07027C006803D005F0D2
:101790008DFA002070BD05F077F9FAE770B50446C0
:1017A0000D4601F00F006168884201D9012070BD2B
:1017B00029064FF000064FF0010207D500EBC001EB
:1017C00004EB810181F83D203C3107E005EBC501C8
:1017D00004EB810181F87D6201F51F718A70087048
:1017E00094F8BC04012807D084F8BC24206805F0D4
:1017F00031FA280702D007E0022070BD217C04F2F4
:10180000C442206805F0CEF984F8BC64002070BDA5
:1018100070B50D4601F00F0404EBC40100EB81012B
:101820004B65CA640023CB65012381F83D3001F884
:101830003C4F0369012B00D14A612A07027C0068F2
:1018400003D005F033FA002070BD05F01DF9FAE76A
:101850002DE9F84F05680446284605F0B8FB002836
:101860007DD1206805F0DFFB002878D0D5F8080886
:10187000C0F30D20C4F8FC04206805F0D4FB8007F9
:1018800004D52068416901F002014161206805F03A
:10189000CAFBC10604F2C440009034D520688169B7
:1018A00021F0100181612F6A07F00F0000EBC000EA
:1018B00004EB8006C7F3434006F51F76022802D0EA
:1018C000062811D01AE047F6F070074216D0C7F389
:1018D0000A1217462846316905F0A9FB30693844D9
:1018E0003061306A384408E008222846009905F043
:1018F0009EFB306AC7F30A11084430622068816990
:1019000041F010018161206805F08DFB00034FF06C
:10191000010B7AD50026206805F064FB8046DFF8CD
:101920007CA46FE05FEAC87069D0F1B2206805F06E
:1019300072FB0746C00707D005EB4611C1F808BB8C
:101940003146204602F0B6FD380722D505EB461198
:101950000820C1F8080B2068D0F8409000E01BE296
:1019600000EB4610D0F8082BD14505D9110403D55A
:101970004FF40041C0F8081B204600F0FCFAD145A6
:1019800007D92069012804D120680121009A05F0B7
:1019900009F9F80604D505EB46111020C1F8080B2B
:1019A000B8071DD56869000605D5D5F8040840F4C8
:1019B0008061C5F8041806EBC60004EB800090F8BF
:1019C0007F1200F51F70012905D10021C170F1B20D
:1019D000204600F0E9F905EB46110220C1F8080B9A
:1019E000B80604D505EB46102021C0F8081BB80442
:1019F00005D505EB46104FF40051C0F8081B4FEA1F
:101A00005808761CB8F1000F8CD1206805F00BFB4C
:101A100040036ED5206805F0DEFA8046002665E0BA
:101A20005FEAC8705FD0F1B2206805F0E2FA0746BD
:101A3000C00723D006F00F020BFA02F0D5F83428C5
:101A40008243C5F8342805EB4610C0F808B9206970
:101A500001280FD106EBC60004EB8000D0E912216B
:101A60001144C16436B9606D20B920680121009A23
:101A700005F098F8F1B22046FFF79FFD380704D52E
:101A800005EB46110820C1F80809F80604D505EB56
:101A900046111020C1F80809780604D505EB461058
:101AA0004021C0F80819B80717D53146284605F077
:101AB00061FA06EBC60004EB800090F83F103C3062
:101AC000012905D10021C170F1B2204600F068F96A
:101AD00005EB46110220C1F80809380603D5314646
:101AE000204602F04DFD4FEA5808761CB8F1000F71
:101AF00096D1206805F097FA002811DAD5F8040885
:101B000020F00101C5F8041894F8F40401282BD042
:101B1000204600F014FA2068416901F0004141615B
:101B2000206805F080FA00050BD5D5F80808C00735
:101B300002D0204600F048FA2068416901F40061B3
:101B40004161206805F06FFAC00467D5D5F8040834
:101B500020F00101C5F804181021206805F00AFAE8
:101B600000214FF67F3220E0002084F8F404014683
:101B70002046FFF7F7FCCEE705EB4110C0F8082937
:101B8000D0F8003923F40013C0F80039C0F8082B4E
:101B9000D0F8003B23F40013C0F8003BD0F8003B22
:101BA00043F00063C0F8003B491C60688842E3D8FA
:101BB000D5F81C0840F00111C5F81C18206B00284E
:101BC00028460DD0D0F8840840F00B01C5F88418E1
:101BD000D5F8440840F00B012846C5F844180DE03C
:101BE000D0F8140842F22B010843C5F81408D5F8C0
:101BF000100840F00B012846C5F81018D0F800086E
:101C000020F4FE61C5F80018217C2068009A04F0D9
:101C1000C9FF2068416901F480514161206805F0E5
:101C200002FA800415D5206804F082FD206805F0D2
:101C3000C1F9E06000F09AFA0146227B206805F0C5
:101C400055FA204600F068F92068416901F4005116
:101C50004161206805F0E7F9000707D5204600F04C
:101C600072F92068416901F008014161206805F0BE
:101C7000DAF9000615D5A86920F08001A9610126CE
:101C80000CE006EBC60004EB800090F87F02012810
:101C900003D1F1B22046FFF7A7FC761C6068B04282
:101CA000EFD8206805F0BFF9C00221D501265F46B4
:101CB00016E005EB4610D0F8001906EBC60004EB61
:101CC000800090F84020012A09D1002907DA80F825
:101CD0003F70F0B240F080012046FFF785FC761C93
:101CE0006068B042E5D82068416901F48011416123
:101CF000206805F098F9800231D501205B4626E086
:101D000005EB4011D1F8001B00EBC00204EB82028E
:101D100092F88062012E19D1002917DA94F8FC6438
:101D200001F4803106F00106B1420FD182F87F3212
:101D3000A96941F08002AA616969090606D4D5F84B
:101D4000040840F40070C5F8040803E0401C616812
:101D50008142D5D82068416901F4001141612068B1
:101D600005F061F9400007D52046FFF722FC206806
:101D7000416901F080414161206805F054F9400754
:101D80000AD520684568680702D52046FFF728FC79
:101D90002068416829434160BDE8F88F0A30544FFC
:101DA000D0F8080504F024B8D0F8080504F034B8D9
:101DB0002DE9F0418AB0040005D094F8BD042668EE
:101DC000002520B108E001200AB0BDE8F08184F8C8
:101DD000BC54204600F05EF8032084F8BD04F06B8C
:101DE000C00500D42561206804F048FE04F110010C
:101DF000282288466846FEF71CFA94E80F0004F093
:101E0000A5FC0227C8BB0021206805F02FF900219E
:101E100001260EE001EBC10004EB800080F83D607C
:101E200000F83C1F01810571C5600561491CC9B2FC
:101E3000856160688842EDD8002111E001EBC100A6
:101E400004EB800080F87D5280F87C1280F880528C
:101E5000C0F88852C0F88C52491CC9B2C0F89452DC
:101E600060688842EAD8282241466846FEF7E1F9D0
:101E700094E80F0004F048FD10B184F8BD74A2E7A7
:101E800084F8385084F8BD64206804F02FFD0020E9
:101E90009AE7000010B586B0044614216846FEF7A4
:101EA000E1F92068B0F1A04F2FD119480021026854
:101EB00042F001020260006800F0010005904FF45A
:101EC000C05000900220CDE90101032003900A20B8
:101ED000049069460F48FEF719FF0D48001D016880
:101EE00041F0800101600A481430016841F48041EA
:101EF00001600068002200F48040059011464320F4
:101F0000FFF7FEFA4320FFF7EDFA06B010BD000020
:101F1000303802400000024070B50446C068012518
:101F2000022801D0FEF79DFC2946D4F8080503F0ED
:101F3000E1FFD4F80805BDE8704003F096BFD0F883
:101F4000080503F0C0BFD0F8080503F0C6BF10B500
:101F5000044690F8BC0401280BD0012084F8BC048E
:101F600084F83810206805F0AFF8002084F8BC042D
:101F700010BD022010BDD0F8082500F2C441104663
:101F800003F0C4BF10B50446006894F8BC140129DE
:101F900006D0012184F8BC14A16A012902D008E00E
:101FA000022010BDA169012903D0816B41F4803169
:101FB0008163206804F0BAFF206804F089FC0020E7
:101FC00084F8BC0410BD000010B50446D0F8080524
:101FD00003F0DEFF2068D0F8001E41F00101C0F8D8
:101FE000001E206A002804D00248016841F0060162
:101FF000016010BD10ED00E02DE9F0470D46040032
:1020000065D0DFF81491D9F80000EFB200F00700B6
:10201000A84207D289F80070D9F8000000F0070044
:10202000A84254D120683D4E810712D5400703D500
:10203000306840F4E05030602078000703D5306805
:1020400040F4604030603068A16820F0F000084340
:1020500030602078C0072DD03049606808390128E9
:1020600012D0022813D0032811D00968890700294B
:102070002DDA316821F0030101433160FEF71EFFC4
:10208000804641F2883A0EE009688903EFE7096863
:102090008901ECE7FEF712FFA0EB0801514502D9D8
:1020A0000320BDE8F0873068616800F00C00B0EBF9
:1020B000810FEFD1D9F80010484601F00701A9427D
:1020C00007D90770006800F00700A84201D001207E
:1020D000E7E72078400705D53068E16820F4E05054
:1020E000084330602078000706D53068216920F465
:1020F000604040EAC100306000F05EF83168084A94
:10210000C1F30311515CC8400649086006480068E5
:10211000FFF78AF90020C4E7003C0240083802407B
:10212000249200080C000020040000200F2202600E
:102130000C4A136803F003034360136803F0F003D1
:102140008360136803F4E053C36012684FF4E053F4
:1021500003EAD20202610448006800F00700086048
:102160007047000008380240003C02400148006807
:10217000704700000C000020044805490068096809
:10218000044AC1F38221515CC84070470C00002012
:10219000083802403492000804480549006809687C
:1021A000044AC1F34231515CC84070470C00002022
:1021B0000838024034920008154810B5006810F045
:1021C0000C01144813D0431004290FD008290ED154
:1021D0000F4C241F216801F03F022168490207D5F6
:1021E0002068C0F38810A0FB030106E0184610BD6C
:1021F0002168C1F38811A1FB00010023FDF7E8FF6E
:102200002168C1F30141491C4900B0FBF1F010BD48
:10221000083802400024F4002DE9F84F040075D07E
:102220002078DFF838A3C007AAF1040548D00AF1E6
:1022300004000168C1F38101012908D00068C0F3DE
:10224000810002280AD1DAF80000400206D5286889
:10225000800335D560680028E1D031E06068B0F5D2
:10226000803F10D0B0F5A02F286810D020F4803027
:102270002860286820F4802028606068A0B1FEF7FC
:102280001DFE06460CE0286840F48030F4E740F478
:1022900080202860F7E7FEF711FE801B642871D8C4
:1022A00028688003F7D50BE0FEF708FE064604E039
:1022B000FEF704FE801B6428F1D828688003F7D459
:1022C0002078DFF89C9280074FF0000B3DD5A348A3
:1022D000001D016811F00C0F08D00068C0F38100E8
:1022E00002280AD1DAF80000400206D428688007E4
:1022F00015D5E068012809D111E0E068B8B10120E6
:10230000C9F80000FEF7DAFD064605E022E1FEF717
:10231000D5FD801B0228C2D828688007F7D5286819
:10232000216920F0F80040EAC10028600DE0C9F8FA
:1023300000B0FEF7C3FD064604E0FEF7BFFD801BBC
:1023400002281FD828688007F7D42078000722D5F4
:10235000824F84486169703771B101210160FEF7D5
:10236000ADFD064604E0FEF7A9FD801B022809D852
:1023700038688007F7D50EE0C0F800B0FEF79EFD84
:10238000064605E082E0FEF799FD801B02287DD815
:1023900038688007F7D42078400765D56F484FF03C
:1023A00000083C300068C0000BD46C483C30016829
:1023B00041F08051016000684FF0010800F080504A
:1023C0000090694F3868C0050FD4386840F48070B9
:1023D0003860FEF773FD064604E0FEF76FFD801BD4
:1023E000022853D83868C005F7D55C4FA0686C3711
:1023F00001280FD00528386810D020F0010038607F
:10240000386820F004003860A068B0B1FEF756FDCF
:1024100006460EE0386840F00100F4E740F00400A2
:102420003860F7E7FEF74AFD811B41F288308142B0
:1024300063D838688007F5D50DE0FEF73FFD064606
:1024400006E0FEF73BFD811B41F28830814254D803
:1024500038688007F5D4B8F1000F05D03F483C300C
:10246000016821F080510160A069B8B33B49091DA2
:102470000968C1F38101022946D00228584606D0D6
:10248000C9F86000FEF71AFD044639E035E04F4612
:10249000C9F86000FEF712FD064604E0FEF70EFDE7
:1024A000801B022829D828688001F7D4D4E90701C5
:1024B0000843A16A2D4A490802EB0141626A41EAD8
:1024C0008211084394F82C1040EA0161CAF8001008
:1024D00001203866FEF7F2FC044605E03CE0FEF71A
:1024E000EDFC001B022808D828688001F7D533E0EE
:1024F000FEF7E4FC001B022802D90320BDE8F88F98
:1025000028688001F4D427E00128F7D0DAF8000029
:10251000E26900F4800191421CD1226A00F03F017F
:10252000914217D147F6C071626A0140B1EB821F38
:1025300010D1A26A4FF0FF3300F4403103EB520296
:10254000B1EB024F06D194F82C1000F07060B0EBA4
:10255000016F01D00120D1E70020CFE7043802400D
:1025600000004742800E4742007000400000FFFF1D
:1025700010B5040011D0022084F8510020680168D1
:1025800021F040010160204600F068F800206065FD
:1025900084F8510084F8500010BD012010BD70B5C2
:1025A000040009D0606A002540B125616561A5621B
:1025B00094F8510040B10CE0012070BD6068B0F5A6
:1025C000827FF4D0E561F2E784F85050204600F0B5
:1025D00071F8022084F851002068016821F0400160
:1025E0000160A088218900F4827001F4044108434D
:1025F000A18901F400610843217C01F00201084334
:10260000217D01F001010843218B01F40071084391
:10261000217F01F03801084394F8201001F0800177
:102620000843218D01F40051084321680860A06926
:10263000042101EA104094F8241001F0100108432D
:10264000216848602068C16921F40061C161656545
:10265000012084F85100002070BD000010B5044630
:10266000104B01681048114A994209D1016821F4C0
:1026700080410160BDE8104099001046FEF7CCBAD9
:102680000B4B99420CD1016821F4004101602821D3
:102690001046FEF7C1FAA06CBDE81040FEF73EB947
:1026A00010BD0000003800404038024000040240E5
:1026B000003C0040F0B587B0064614216846FDF79F
:1026C000D1FD2F49DFF8B4C0306800252C4A1039FD
:1026D000022303272B4C60451BD1106840F4804037
:1026E0001060106800F480400590086840F0020017
:1026F00008600868694600F0020005904FF46040E9
:102700008DE8A900052004902046FEF7FFFA07B0E7
:10271000F0BDDFF874C06045F9D1106840F40040A6
:102720001060106800F400400590086840F0020056
:1027300008600868694600F00200059028208DE8CE
:10274000A900062004902046FEF7E0FA104C0F483E
:10275000C4E900054020C4E902050001C4E90405FC
:10276000A561E561256220466562FEF7D9F908B1E9
:10277000FEF777F8B464A663C9E7000000380040AC
:102780004038024000040240003C004088600240A3
:10279000680200202DE9F84F0446406800261D46D7
:1027A000904689464FF0040BB0F5827F01D1A068B6
:1027B00088B194F85000012817D0012084F8500007
:1027C000FEF77CFB074694F851004FF0000A012801
:1027D0000DD002267EE084F851B0009313460A46DD
:1027E000204600F036F9BDE8F88F0220FBE7B9F18A
:1027F000000F6ED0B8F1000F6BD084F851B0C4F860
:1028000054A0C4F83890A4F83C80A4F83E80C4F8E2
:1028100030A0A4F834A0A4F836A0C4F840A0C4F8AE
:1028200044A0A068B0F5004F09D12068016821F0EC
:10283000400101602068016821F480410160206846
:102840000168490603D4016841F040010160E06875
:10285000B8B131E020688168C90709D0007BA16B5D
:102860000870A06B401CA063E08F401EE08708E06A
:10287000FEF724FBC01BA84202D3681C01D031E044
:102880007DB3E08F0028E5D119E020688168C90791
:1028900009D0C068A16B0880A06B801CA063E08F8A
:1028A000401EE08708E0FEF709FBC01BA84202D3E8
:1028B000681C01D016E0A5B1E08F0028E5D13A46AA
:1028C0002946204602F06EFB08B120206065606D4D
:1028D00000B10126012084F8510084F850A0304650
:1028E00081E7FFE70326F5E72DE9F84F044690F866
:1028F000500000261D469046894601280ED04FF014
:10290000010B84F850B0FEF7D9FA074694F851004D
:102910004146B246012804D0022694E00220BDE8D8
:10292000F88FB9F1000F74D0B8F1000F71D0032007
:1029300084F85100C4F854A0C4F83090A4F834804E
:10294000A4F83680C4F838A0A4F83CA0A4F83EA0AF
:10295000C4F844A0C4F840A0A068B0F5004F09D165
:102960002068026822F0400202602068026842F497
:102970008042026020680268520603D4026842F076
:1029800040020260E068B0F5006F606803D028B3D1
:10299000012923D03FE008B101291BD1206B216818
:1029A0000088C86006E020688168890709D5216B26
:1029B0000988C160206B801C2063E08E401EE08689
:1029C00008E0FEF77BFAC01BA84202D3681C01D0C6
:1029D00030E075B3E08E0028E5D11FE0206B216860
:1029E0000078087306E020688168890709D5216BA3
:1029F00009780173206B401C2063E08E401EE08646
:102A000009E0FEF75BFAC01BA84203D3681C02D0A2
:102A100010E017E06DB1E08E0028E4D13A46294677
:102A2000204602F0EDFA08B120206065A06818B1D8
:102A300006E0FFE7032606E02068C1688068009092
:102A4000606D00B1012684F851B084F850A0304682
:102A500065E72DE9F84F044690F8500001250A9EDD
:102A60001F4692468B464FF0000801280ED00120E9
:102A700084F85000FEF722FA814694F8510061680C
:102A800001280CD0B1F5827F07D102E00220BDE819
:102A9000F88FA16809B9042801D00220B6E0BBF183
:102AA000000F27D0BAF1000F24D01FB394F85100C3
:102AB000042802D0052084F8510000206065C4F885
:102AC00038A0E787A787C4F830B0E786A7862064D8
:102AD000606420680168490603D4016841F0400140
:102AE0000160E068B0F5006F606805D0E8B3012FC1
:102AF00043D079E0012089E008B1012F34D1206B67
:102B000021680088C860206B801C2063E08E401E16
:102B1000E08629E02068816889070DD5E18E59B1EA
:102B2000012D09D1216B0988C160206B801C2063B5
:102B3000E08E401EE086002520688168C9070BD022
:102B4000E18F49B1C068A16B0880A06B801CA063B5
:102B5000E08F401EE0870125FEF7B0F9A0EB0900E9
:102B6000B04201D3701C50D100E006E0E08E002896
:102B7000D0D1E08F0028CDD13CE0206B21680078D7
:102B80000873206B401C2063E08E401EE0862BE023
:102B90002068816889070DD5E18E59B1012D09D1D1
:102BA000216B09780173206B401C2063E08E401E6E
:102BB000E086002520688168C9070BD0E18F49B104
:102BC000C068A16B0870A06B401CA063E08F401E22
:102BD000E0870125FEF772F9A0EB0900B04202D3AD
:102BE000701C01D011E086B1E08E0028D0D1E08FBA
:102BF0000028CDD14A463146204602F001FA38B1CC
:102C000020204FF00108606508E00320804605E0C1
:102C1000A06818B92068C16880680090012084F815
:102C20005100002084F85000404630E7704770475C
:102C300010B590F83C20012A22D0012280F83C20D7
:102C4000CA688C6822F4407222434C6822F4806285
:102C500022430C6822F4006222430C6922F4805261
:102C600022434C6922F400522243C969002322F412
:102C700080420A4301684A6480F83C30002010BD5D
:102C8000022010BD70B590F83C20012A2CD00125FF
:102C900080F83C50022280F83D2002685368946816
:102CA00023F070060B6833435360104B02689A425E
:102CB0000ED0B2F1804F0BD00D4B9A4208D00D4B85
:102CC0009A4205D00C4B9A4202D00C4B9A4204D146
:102CD000496824F080031943916080F83D50002139
:102CE00080F83C10084670BD022070BD0000014015
:102CF0000004004000080040000C0040004001407B
:102D000010B5040003D094F83D0010B107E0012095
:102D100010BD002084F83C00204600F01FF802207F
:102D200084F83D00211D206802F006FB012084F894
:102D3000460084F83E0084F83F0084F8400084F8A0
:102D4000410084F8420084F8430084F8440084F889
:102D5000450084F83D00002010BD000008B5006863
:102D6000224A2349904218D1086840F001000860C7
:102D70000868002200F0010000900F211820FEF7E3
:102D8000BFFB1820FEF7AEFB00220F211920FEF733
:102D9000B7FB1920FEF7A6FB1CE0164A90420ED1A5
:102DA000086840F4803008600868002200F4803031
:102DB00000900F211820FEF7A3FB182010E00E4A08
:102DC000904211D1086840F480200860086800F43F
:102DD00080200090002204211A20FEF791FB1A2087
:102DE000BDE80840FEF77EBB08BD000000000140C2
:102DF00044380240004001400048014090F83D1036
:102E0000012901D001207047022180F83D1001689E
:102E1000CA6842F00102CA6000680E4988420ED0BA
:102E2000B0F1804F0BD00C49884208D00B49884242
:102E300005D00B49884202D00A49884204D18168F2
:102E400001F00701062903D0016841F0010101608A
:102E500000207047000001400004004000080040CE
:102E6000000C00400040014070B5044690F83C0062
:102E70000025012817D0012684F83C60022084F840
:102E80003D002068826822F0770222F47F4282604F
:102E90000868502838D00DDC20284FD005DC90B3CE
:102EA000102811D14AE0022070BD302846D04028B9
:102EB0000AD13BE060282FD070280DD0B0F5805F9C
:102EC00003D0B0F5005F12D0012584F83D600020EA
:102ED00084F83C00284670BDCB68D1E90121206808
:102EE00002F083FA2068816841F0770109E0CB683D
:102EF000D1E90121206802F078FA2068816841F464
:102F000080418160E1E719E0CA684968206802F001
:102F100027FB5021206806E0CA684968206802F053
:102F200030FB6021206802F06AFACEE7CA6849687F
:102F3000206802F015FB40212068F4E72268014672
:102F40001046F0E72DE9F0410D46040003D094F857
:102F50003D0018B108E00120BDE8F081002084F8B0
:102F60003C00204600F040F8022084F83D00206834
:102F7000816844F2070291438160211D206802F0BC
:102F8000DBF9206881688269066A2B68AF690B43A8
:102F900040F203318A4342EA0722A968EF691143EC
:102FA0004FF6FC429143EA6841EA07210A43296946
:102FB0002F6A090141EA073111436A686D6926F0F9
:102FC000AA0646EA05152A4383602068816154F801
:102FD000460B0262012004F81F09E0752076E076B6
:102FE0002077A0750020B7E710B586B004461421FD
:102FF0006846FDF737F92068B0F1804F1FD11148BE
:103000000021026842F001020260006800F0010045
:1030100005900C481038026842F001020260006816
:1030200000F001000590032000900220CDE901018D
:103030000120CDE9031069460348FDF767FE06B09D
:1030400010BD0000403802400000024070B590F80A
:103050003E50044690F83F3090F8422090F84300EC
:10306000022621B104290BD0012D16D10FE0012D2C
:1030700013D1012A11D184F83E6084F8426016E031
:10308000012B0AD1012808D184F83F600DE0012B03
:1030900003D1012A01D1012801D0012070BD84F89B
:1030A0003E6084F83F6084F8426084F8436091B1E8
:1030B000042904D001220021206802F089F90122AC
:1030C0000421206802F084F92068016841F00101C0
:1030D0000160002070BD012200212068F2E77047E6
:1030E00070B50446006801694FF00005C9438907BF
:1030F00015D4C168C943890711D4E91E01610120B3
:103100002077206880698007204602D0FFF7E7FF1C
:1031100004E000F0C3F8204600F055F92577206858
:103120000169C943490717D4C168C943490713D482
:103130006FF004010161022020772068806910F49B
:10314000407F204602D0FFF7CAFF04E000F0A6F857
:10315000204600F038F9257720680169C94309073E
:1031600016D4C168C943090712D46FF00801016180
:10317000042020772068C0698007204602D0FFF72E
:10318000AEFF04E000F08AF8204600F01CF9257735
:1031900020680169C943C90617D4C168C943C90673
:1031A00013D46FF010010161082020772068C069F6
:1031B00010F4407F204602D0FFF791FF04E000F0BA
:1031C0006DF8204600F0FFF8257720680169C943B3
:1031D000C90708D1C168C943C90704D1891E016163
:1031E000204600F0F1F820680169C943090609D4B6
:1031F000C168C943090605D46FF08001016120460A
:10320000FFF714FD20680169C943490609D4C16864
:10321000C943490605D46FF040010161204600F022
:10322000F3F820680169C94389060BD4C168C94312
:10323000890607D46FF0200101612046BDE8704087
:10324000FFF7F5BC70BD000010B586B00446142130
:103250006846FDF707F80E482168814216D10D48EF
:103260000021026842F001020260006800F00100E3
:1032700005904FF4807000900220CDE901010120FB
:10328000CDE9031069460448FDF740FD06B010BDC6
:10329000000001403038024000000240704770B525
:1032A000044690F83C0000260D4601280FD001206E
:1032B00084F83C006AB1042A1DD0082A2FD00C2AB9
:1032C0003FD00126002084F83C00304670BD02202B
:1032D00070BD206802F09CF82068816941F0080107
:1032E00081612068816921F0040181612068816920
:1032F0002A69114311E0206802F0B6F8206881695C
:1033000041F4006181612068816921F480618161FB
:10331000206881692A6941EA02218161D2E7206837
:1033200002F0D0F82068C16941F00801C16120684D
:10333000C16921F00401C1612068C1692A69114392
:1033400011E0206802F0EAF82068C16941F40061E8
:10335000C1612068C16921F48061C1612068C169CF
:103360002A6941EA0221C161ACE710B5040003D02B
:1033700094F83D0010B107E0012010BD002084F852
:103380003C00204600F01EF8022084F83D00211D7C
:10339000206801F0D1FF012084F8460084F83E0047
:1033A00084F83F0084F8400084F8410084F842002B
:1033B00084F8430084F8440084F8450084F83D0014
:1033C000002010BD7047704710B504460B4884427A
:1033D0000AD10B4A11780A2902D2491C117003E064
:1033E0000020107004F098FB06492068884203D141
:1033F000BDE81040FDF7F6BF10BD0000A00300209F
:1034000010000020004401407047704770470000E2
:10341000F8B5016804460868CA684B6910F00F0FD8
:103420004FF000055AD003F0010602F490773743BD
:1034300065D0C10705D0D10503D5216C41F001014C
:103440002164410705D5D90703D0216C41F0020161
:103450002164810705D5D90703D0216C41F004010F
:103460002164010707D502F02001314303D0216C0C
:1034700041F008012164216C00293BD0800604D56D
:10348000900602D5204602F0BDF820684069216C04
:10349000C0F3801001F00801014320462BD002F058
:1034A0008AF820684069400621D52068143050E829
:1034B000001F21F0400140E80012002AF5D1A06B66
:1034C000A8B16C490165A06BFDF716FA002811D070
:1034D000A06B016D01B0BDE8F040084783060ED532
:1034E00093060CD52046BDE8F84002F08BB8204684
:1034F000FFF78CFFF8BDFFF789FF2564F8BD266B49
:103500002023012E79D1C60677D5D60675D5086851
:10351000486800904869400640D5A16B086840683B
:103520000004000CEAD0A28D8242E7D9E085C86988
:10353000B0F5807F2DD020680C3050E8001F21F4BA
:10354000807140E80012002AF5D12068143050E85C
:10355000001F21F0010140E80012002AF5D1206887
:10356000143050E8001F21F0400140E80012002A0A
:10357000F5D184F83E30256320680C3050E8001FF8
:1035800021F0100140E80012002AF5D1A06BFDF7F0
:103590006AF9A08DE18D401A81B229E0A08DE18DFC
:1035A000401A81B2E08D0028A8D00029A6D020685A
:1035B0000C3050E8002F22F4907240E80026002ED4
:1035C000F5D12068143050E8002F22F0010240E8C5
:1035D0000026002EF5D184F83E30256320680C309B
:1035E00050E8002F22F0100240E80023002BF5D114
:1035F0002046FFF70AFFF8BDFFE705062BD51506A5
:1036000029D594F83D002128F5D1A068B0F5805F58
:1036100001D12069B0B1206A411C21622168007883
:103620004860E08C401E0004000CE084E3D1206878
:10363000C16821F08001C1602068C16841F040018B
:10364000C160D8E7206A0088C0F308004860206A9B
:10365000801C2062E5E74006CDD55006CBD5CA6870
:10366000204622F04002CA6084F83D3000F0FAF8AB
:10367000C1E70000A755000870B5040004D094F815
:103680003D00002510B106E0012070BD84F83C50DB
:10369000204600F023F8242084F83D002068C1680B
:1036A00021F40051C160204602F00CF82068016945
:1036B00021F4904101612068416921F02A014161B2
:1036C0002068C16841F40051C1602564202084F85D
:1036D0003D0084F83E00002070BD000010B586B0AB
:1036E000044614216846FCF7BDFD1849206888424D
:1036F00029D117480021026842F0100202600068D8
:1037000000F01000059012481438026842F00102DF
:103710000260006800F0010005904FF4C060009066
:103720000220CDE90101032003900720049069469F
:103730000848FDF7EBFA002203212520FDF7E0FE03
:103740002520FDF7CFFE06B010BD0000001001409F
:10375000443802400000024090F83E30202B0ED149
:1037600059B152B190F83C30012B08D0012380F8B8
:103770003C300023036302F02BB801207047022085
:1037800070470000084910B588420BD107480178FE
:10379000074805F0A1FABDE810400122034902489C
:1037A000FFF7DABF10BD0000E8030020440000204E
:1037B000F40400202DE9F843044690F83D001F462C
:1037C00015460E4620284BD1C6B1BDB194F83C0039
:1037D000012845D0012084F83C004FF00008C4F8CF
:1037E0004080212084F83D00FDF768FBA5848146D8
:1037F000E584A068B0F5805F03D004E00120BDE857
:10380000F883206920B13546002684F83C800EE01C
:103810000025FAE78021204601F0F7FFA0B9ADB1FD
:1038200015F8010B21684860E08C401EE084E08CB4
:103830004B464FF0000200970028EBD14FF04001BB
:10384000204601F0E2FF30B10320D8E736F8020B42
:10385000C0F30800E6E7202084F83D000020CEE712
:103860000220CCE77047FEE701684A69D24352055F
:103870000FD46FF480624A61002140F8301F20228B
:1038800042738173026942F00402026101730120F4
:1038900070470020704700002DE9F84F044600688B
:1038A00089460B9E01689846174641F48061016085
:1038B0002068016841F48071016000964FF0011B9F
:1038C0000022594620460A9B00F0DEF84FF4007AA9
:1038D00040B120680068C00501D5C4F840A00320AD
:1038E000BDE8F88F216809F0FE00086133462849D9
:1038F00020460A9A00F0FCF8F0BB20684169806914
:103900000090324620460A9900F073F940B1206CCD
:1039100004283AD12068016841F40071016034E064
:10392000FDB2B8F1010F09D02168380A08613246AA
:1039300020460A9900F05DF90028E8D12068056169
:10394000324620460A9900F054F90028DFD1206859
:10395000016841F4807101600096002259462046BA
:103960000A9B00F091F80028B3D1216809F0FF000C
:1039700040F00100086100E007E0334604492046BA
:103980000A9A00F0B5F80028AAD00120A8E70000A4
:10399000020001002DE9F843044600680D46DDE908
:1039A000089701689846164641F4807101604B46BD
:1039B00000224FF001112046009700F065F848B151
:1039C00020680068C00502D54FF400702064032011
:1039D000BDE8F883216805F0FE0008613B464A46D1
:1039E0001549204600F084F888B92068416980694B
:1039F00000903A464946204600F0FBF848B1206C5A
:103A0000042804D12068016841F40071016001209C
:103A1000DEE7F5B2B8F1010F09D02168300A08617C
:103A20003A464946204600F0E4F80028E7D12068ED
:103A300005610020CCE700000200010070B51646C9
:103A40000D4604460DE02046FFF70EFF08B10120A9
:103A500070BD681C05D0FDF731FA801BA84207D85D
:103A600035B120684069C0434007ECD4002070BDE8
:103A7000002044F8300F20216173A073216941F0C8
:103A8000200121612073E2E72DE9F0471D469046B1
:103A90000E460446C1F30747DDF8209008E0681C95
:103AA00006D0FDF70BFAA0EB0900A8420FD875B1BC
:103AB0002068012F18D0806926EA00000004000C5D
:103AC00014D000204045EAD00020BDE8F087002057
:103AD00044F8300F20216173A073216941F0200167
:103AE000216120730120F0E74069E5E70120E9E763
:103AF0002DE9F047984615460E4604464FF000095A
:103B00004FF0200AC1F3074723E020684069C04313
:103B1000400515D42068016841F4007101602168F6
:103B20006FF480604861C4F8309084F83DA084F858
:103B30003E90216C41F00401216484F83C901EE029
:103B4000681C06D0FDF7BAF9A0EB0800A8420AD815
:103B50004DB12068012F15D0806926EA00000004CD
:103B6000000C0DD0D1E744F8309F84F80DA084F804
:103B70000E90216941F02001216184F80C90012010
:103B8000BDE8F0874069E8E72DE9F04116460D46AB
:103B9000044600274FF0200817E04069C043C006E4
:103BA0000DD454F8301B6FF01000486144F80D7BC1
:103BB00004F81D89A777206A2062277717E0FDF7B0
:103BC0007DF9801BA84208D83DB120684169C943EE
:103BD0004906E2D40020BDE8F08144F8307F84F843
:103BE0000D80A773206940F0200020612773012019
:103BF000F1E770B516460D4604460DE02046FFF786
:103C000033FE08B1012070BD681C05D0FDF756F9E0
:103C1000801BA84207D835B120684069C043000620
:103C2000ECD4002070BD002044F8300F20216173D7
:103C3000A073216941F0200121612073E2E7F0B512
:103C400000230A24302537261F4610E0B4EB107FEE
:103C500002D905EB107C01E006EB107C01F813C0E3
:103C600001EB430C00015B1C8CF80170DBB293424A
:103C7000ECD3F0BD10B504464FF47A70844201D9FC
:103C8000044602E0042C00D20424B0FBF4F0401EF1
:103C9000C1B2192000F01CF86008BC2801D3012132
:103CA00010E0622801D302210CE02A2801D303216D
:103CB00008E0142801D3042104E00A2801D30521D7
:103CC00000E00621BDE810401A2000F001B8000015
:103CD0001FB504468DF80C1003F092FF03210C4829
:103CE00004F0ECFB90B1012140F6FF7203A88DE8CF
:103CF00007000B462246D2210648FDF7A5FA03210C
:103D0000034804F0F1FB002004B010BD0120FBE7E4
:103D100017000020640100202DE9F0410546D0F88D
:103D2000D40205EB8000D0F8C042002C1ED004F570
:103D300080510F4E087F38B9886928B1607A18B968
:103D40003178284602F012F90A4F2846397802F0F5
:103D50000DF9607A022809D13978284602F006F96F
:103D600031782846BDE8F04102F000B9BDE8F081A5
:103D7000F5000020F40000202DE9F0410746D0F8BE
:103D8000D40207EB8000D0F8C042002C5FD004F5CD
:103D9000805568696863A869A8632E480178384629
:103DA00001F0E2FF1F280AD12B492869884206D179
:103DB000697F012903D8A87F08B1102808D9697F35
:103DC00020230522384600F0A1FF022060720AE09D
:103DD00041F21F002218384600F078FC0028207AB3
:103DE00008DA052804D03846BDE8F041FFF794BF53
:103DF000012127E002282AD0012828D0032826D034
:103E0000E668F6B1D7F8D412384607EB810104F121
:103E10001002D1F8C052002D19D005F580518B69E0
:103E2000B34200D333468C6BA41B8C63002481F80F
:103E30003C400421297209490978BDE8F04102F0AB
:103E4000B0B800213846BDE8F04100F0E3B8BDE865
:103E5000F0810000F500002055534243F40000209B
:103E600010B50446D0F8D40204EB8000D0F8C002AC
:103E7000002818D0407A022809D0090613D5012855
:103E800011D02046BDE81040012100F0C3B806481B
:103E90000178204602F06AF8044801782046BDE81F
:103EA000104002F063B810BDF4000020F5000020BF
:103EB00010B50446D0F8D40204EB8000D0F8C0223C
:103EC000002A18D0117A022905D0032901D004292B
:103ED00011D100210AE041F21D00815C801C0244E6
:103EE000204600F0F3FB002805DA01212046BDE85A
:103EF000104000F08FB810BD10B50446D0F8D402C1
:103F000004EB8000D0F8C022002A18D0107A88B1C3
:103F1000012814D141F21D00815C801C024420461E
:103F200000F0D4FB00280ADA2046BDE81040012149
:103F300000F070B82046BDE81040FFF71DBF10BD6F
:103F4000D0F8D41200EB8100D0F8C002002801D0D4
:103F5000002101727047000070B50546D0F8D40208
:103F600005EB8000D0F8C042002C26D00020207243
:103F700004F58051607281F8610001F8600F88706B
:103F8000D5F8D40205EB8000D0F8C4020168002007
:103F900088470A4E2846317801F0DDFE084801784E
:103FA000284601F0D8FE1F2341F210002218317874
:103FB0002846BDE8704001F04FBF70BDF5000020FD
:103FC000F400002070B50546D0F8D40205EB80005F
:103FD000D0F8C042002C17D000202072012060725F
:103FE0000A480178284601F0EFFD094E284631784D
:103FF00001F0EAFD1F2341F2100022183178284613
:10400000BDE8704001F028BF70BD0000F400002042
:10401000F500002070B50546D0F8D40205EB80000D
:10402000D0F8C042002C1BD004F580500D4A02632A
:1040300080F83C100020207241F2300022180A481B
:104040000D230178284601F0ACFF1F2341F2100038
:104050002218064801782846BDE8704001F0FCBEF1
:1040600070BD000055534253F4000020F5000020BD
:10407000094808B5016841F4001101600068002298
:1040800000F40010009001211020FDF739FABDE87E
:1040900008401020FDF726BA303802402DE9F043E1
:1040A00087B014216846FCF7DDF836480024016823
:1040B00041F004010160016801F00401059101680B
:1040C00041F080010160016801F080010591016803
:1040D00041F001010160016801F0010105910168F1
:1040E00041F0020101600068DFF89C8000F00200EE
:1040F0000590012280214046FCF7DAFEDFF88C9023
:10410000012241F201014846FCF7D2FE00224FF4A1
:1041100000414046FCF7CCFE0022D0214846FCF787
:10412000C7FE4FF4005002278DE8910069461848F9
:10413000FCF7ECFD48F2800001250326CDE90005DF
:10414000CDE9024669464046FCF7E0FD41F2D10068
:10415000CDE90005CDE9024669464846FCF7D6FDA3
:10416000CDE90074694648460294FCF7CFFD40F261
:1041700004408DE8310069464846FCF7C7FD07B0AA
:10418000BDE8F083303802400000024000040240E5
:10419000000802400D4810B50B4901600C49416010
:1041A00000214FF480428160C0E9031241618161C6
:1041B000C1610162FCF788FE002803D0BDE8104011
:1041C000FCF74FBB10BD000000540040640100200C
:1041D000A08601000F4810B50D4901604FF48271AF
:1041E000416000218160C1604FF400720161C0E94B
:1041F0000512C1610162416281620A21C162FEF75A
:10420000CEF9002803D0BDE81040FCF72ABB10BD52
:1042100000380040B80100200F4810B50D4901607A
:104220004FF48271416000218160C1604FF40072DF
:104230000161C0E90512C1610162416281620A2126
:10424000C162FEF7ACF9002803D0BDE81040FCF7CE
:1042500008BB10BD003C0040100200200C4810B507
:104260000A49016042F2CF01416000216322C0E9A6
:104270000212016180218161FEF742FD002803D016
:10428000BDE81040FCF7EDBA10BD00000048014049
:10429000A003002010B596B000240F941094119440
:1042A000129413941C2108A81494FBF7DBFF20211F
:1042B0006846FBF7D7FF28482649016040F247319E
:1042C000C0E901146321C0E9031444618461FEF76D
:1042D00017FD08B1FCF7C5FA4FF480500F900FA9F5
:1042E0001D48FEF7C1FD08B1FCF7BBFA1A48FFF7FD
:1042F0003CF808B1FCF7B5FA139413A916481494C6
:10430000FEF7C0FC08B1FCF7ACFA6020CDE9080468
:104310000A940B940C940D94002208A90E480E9454
:10432000FEF7BDFF08B1FCF79CFA00944FF4005073
:10433000CDE9044002940194039469460648079429
:10434000FEF776FC08B1FCF78CFA0348FEF77CFF19
:1043500016B010BD00000140C802002010B58CB09E
:1043600024216846FBF77EFF0024164809944FF08D
:1043700080410A94C0E9001447F6FF71C0E9024188
:104380008021046181610320CDE900040120CDE991
:1043900002040F210491CDE90540CDE907416946AA
:1043A0000848FEF7CFFD08B1FCF75BFA099409A9AC
:1043B00004480A94FEF766FC002801D0FCF751FA85
:1043C0000CB010BD100300201FB500201149009053
:1043D000019002900E4A03900A600922C1E901206F
:1043E0004FF6FF72C1E9032088610846FEF788FC9A
:1043F00008B1FCF736FA4FF4805000906946054842
:10440000FEF732FD002801D0FCF72BFA1FBD00009B
:1044100000400140580300200C4810B50A490160D3
:104420004FF4E1314160002181600C22C160C0E99C
:1044300004128161C161FFF71FF9002803D0BDE8B4
:104440001040FCF70EBA10BD001001402C040020F3
:1044500010B500220F49104801F0A3FB08B1FCF78A
:1044600000FA0E490C4801F01AFF08B1FCF7F9F9FF
:104470000B49094801F082FE08B1FCF7F2F9064841
:1044800001F090FF002803D0BDE81040FCF7E9B927
:1044900010BD0000480000206C060020BC00002079
:1044A00098000020FEE7FEE70148FDF7D1B90000C3
:1044B000C01B00202DE9F041066805460C46306C13
:1044C00006EB4411D1F8083BD5F810C04FF4004773
:1044D0004FF0200E05F2C442BCF1010F08D0DFF806
:1044E00098C0604538D1180431D5C1F8087B3FE049
:1044F000224E5FEA037C04D5B04239D91804F4D4C3
:1045000036E05FEA836C02D5C1F808EB30E013F0C7
:10451000280F2DD1B04201D91804E6D404EBC40011
:1045200005EB8000D1F8101BD0F89832C1F31201CE
:10453000591AC0F89C1200F51F70ACB983691BB101
:104540000269114401610FE0012128680AE0980620
:104550000AD5C1F808EB07E034B9D5F8940218B9C8
:104560000021304602F01EFBE1B22846FDF72EF88E
:104570000020BDE8F08100000A31544F0A30544F4A
:104580002DE9F84F0E4601EBC60100EB8104814690
:10459000D0F80080616DE06D3C34884202D9012082
:1045A000BDE8F88F081AE168814200D20846C01CB5
:1045B000870808EB461A15E0451AE068A84200D2C1
:1045C0000546E81C870899F810000090ABB2F2B2DB
:1045D0004046216902F0FEFD206928442061206ADE
:1045E00028442062DAF8180980B2B84205D3216A5B
:1045F000A069814201D20028DED1216AA0698842E7
:1046000008D806F00F0101208840D8F834188143FB
:10461000C8F834180020C3E7704730B5D0F8D4424A
:104620004FF0FF3500EB8404D4F8C0424CB104F5E0
:1046300080541A44A36E9A4205D92123052200F022
:1046400065FB284630BD002030BD00002DE9F0415B
:104650000446D0F8D402134604EB80064FF0FF3531
:10466000D6F8C00280B100F5805297697FB15F78BB
:10467000FF0715D0997869B180290ED0517F242386
:104680000522204600F042FB2846BDE8F081517F1C
:104690002023F5E706220B490FE008220A490CE027
:1046A000D6F8C42201EBC1011B79D26902EB81016A
:1046B0000A79521D934200D81A4600F086FB00206A
:1046C000E3E7000022010020280100202DE9F0414D
:1046D000D0F8D4324FF0FF3500EB8303D3F8C0623B
:1046E00056B3137802270024252B7ED00FDC1A2B1B
:1046F00061D005DC0BB3032B23D0122B17D124E0A0
:104700001B2B26D01E2B49D0232B10D169E05A2B0E
:104710005AD006DC282B70D02A2B76D02F2B06D12E
:104720007BE09E2B65D0A82B6BD0AA2B71D02023C9
:10473000052200F0EBFA777225E0BDE8F04100F0C9
:1047400014BBBDE8F04100F09EBABDE8F041FFF7B0
:104750007DBF334606F5805696F862C0BCF1010F66
:1047600006D192F804C00CF0030CBCF1020F57D034
:10477000107900F0030101290BD0022906D0C043B3
:10478000800706D007E02846BDE8F08186F8627011
:1047900001E086F862402046DC60F5E7107930B130
:1047A00041F26200012181552046F460ECE741F2BC
:1047B00062008455F8E7127917213046172A00D88D
:1047C00011460A461D4907E0127A1B2130461B2A72
:1047D00000D811460A461A4900F0F7FA2046D3E7F6
:1047E00003E0BDE8F04100F00ABABDE8F04100F096
:1047F00072B9BDE8F04100F0ACB9BDE8F04100F09D
:10480000C3B8BDE8F04100F011B9BDE8F04100F0D7
:10481000EDBABDE8F04100F053BB5278920704D5E1
:104820002423052200F072FAADE706F58052136FDB
:10483000D26EFFF7F2FE0028B6DAA4E730010020BE
:10484000470100202DE9F0470746D0F8D4028946F9
:1048500007EB80014FF0FF38D1F8C062FEB106F5DA
:1048600080544FF48052B4F86400256F454395425C
:1048700000D31546B5FBF0F083B2D1F8C40206F1BF
:104880001001E26ED0F810C08A464846E047002882
:1048900008DA112304224946384600F037FA404628
:1048A000BDE8F0870D482B4652460178384601F0A6
:1048B00078FBB4F86400E26EB5FBF0F1B5FBF0F004
:1048C0001144E166216F081A2067A16BA1EB050175
:1048D000A16301D1032030720020E1E7F400002041
:1048E0002DE9F0470746D0F8D402894607EB80004F
:1048F0004FF0FF38D0F8C012F1B101F580544FF4F9
:104900008056B4F86420256F5543B54200D3354630
:10491000B5FBF2F2D0F8C40293B21031D0F814C053
:10492000E26E8A464846E047002808DA032304225C
:104930004946384600F0EAF94046BDE8F087B4F849
:104940006400E26EB5FBF0F11144E166B5FBF0F1F5
:10495000226F531A2367A16BA1EB0501A1630BD052
:104960004343B34200D333460648524601783846A3
:1049700001F072FA0020E0E700213846FFF74AFB19
:10498000F8E70000F50000202DE9F0470646D0F8D2
:10499000D402174606EB80008946D0F8C0524FF08B
:1049A000FF384DB3297AA9BB05F58054217F09064C
:1049B0002CD594F86210022905D0D0F8C402816881
:1049C0004846884730B13A2302224946304600F033
:1049D0009DF911E0D7F80200494600BA20F0FF0225
:1049E00078790243E266B7F8070043BA3046236796
:1049F000FFF713FE002802DA4046BDE8F087B4F85E
:104A00006410206F4843A169884204D02023617F4D
:104A10000522DBE701E0022028724FF48050E860B5
:104A200049463046BDE8F047FFF70CBF2DE9F04797
:104A30000746D0F8D402164607EB80008946D0F826
:104A4000C0524FF0FF3865B3297AC1BB05F58054D9
:104A5000217F09062FD594F86210022905D0D0F8DD
:104A6000C40281684846884730B13A230222494649
:104A7000384600F04BF914E056F8020F494600BAE8
:104A800020F0FF02F0780243E266706800BA20F07E
:104A9000FF03F079034338462367FFF7BEFD002884
:104AA00002DA4046BDE8F087B4F86410206F48434E
:104AB000A169884204D02023617F0522D8E701E064
:104AC000022028724FF48050E86049463846BDE81D
:104AD000F047FFF7B7BE2DE9F0410546D0F8D40204
:104AE0000F4605EB80004FF0FF36D0F8C0425CB1B6
:104AF000D0F8C402436841F264002218001D211856
:104B000038469847F0B902E03046BDE8F08104F538
:104B1000805191F86200022814D0886E401E020E67
:104B20002274020C6274020AA274E07400202075E0
:104B30006075B1F86400010AA175E0750820E060B5
:104B40000020E2E73A2302223946284600F0DEF848
:104B5000DAE72DE9F0410646D0F8D402154606EB17
:104B600080008846D0F8C0424FF0FF375CB1D0F8E3
:104B7000C402436841F264002218001D2118404617
:104B80009847A0B902E03846BDE8F08104F58052AC
:104B900092F8620002280AD0D5F80A00697B00BAB0
:104BA00020F0FF000843E060002001460AE03A23BD
:104BB00002224146304600F0A9F8E4E72318401CE1
:104BC0001974C0B2E3688342F8D8906E401E030E99
:104BD0002375030C6375030AA375E075217661766E
:104BE000B2F86400010AA176E076D5F80A00697B84
:104BF00000BA20F0FF000843E0600020C4E72DE980
:104C0000FC410546D0F8D4020F4605EB80004FF07A
:104C1000FF36D0F8C04244B1D0F8C4026A4601A9B8
:104C200043683846984738BB02E03046BDE8FC810F
:104C300041F26200005D02281ED0002001462218C9
:104C4000401C80B211740C28F9D30820E07401983C
:104C5000401E020E2275020C6275020AA275E075F2
:104C6000022020766176BDF80000010AA176E07688
:104C70000C20E0600020D9E73A230222394628467A
:104C800000F044F8D1E770B5D0F8D4124FF0FF34FB
:104C900000EB8101D1F8C01231B301F580539D6959
:104CA00025B3002004460D18401CC0B22C741228F5
:104CB000F9D3702008740C20C87593F8600093F83D
:104CC0006150A8421AD001EBC00505F58255401C81
:104CD0002E788E742E790E776D79C0B24D7783F869
:104CE0006000042808D009E0204670BD597F2023C9
:104CF000052200F00BF8F7E783F860401220C86047
:104D00001079122800D8C860002070BD10B5D0F806
:104D1000D41200EB8100D0F8C002002824D000F5A6
:104D2000805191F8614000EBC40404F5805484F88C
:104D3000402091F8612000EBC20202F5805282F817
:104D4000443091F86130002200EBC30000F5805040
:104D500080F8452091F86100401CC0B281F86100E4
:104D6000042801D181F8612010BD2DE9F0410546EC
:104D7000D0F8D402884605EB80014FF0FF36D1F819
:104D8000C042E4B104F58050826932B1417F2023F2
:104D900005222846FFF7BAFF11E090F862000527C8
:104DA000022805D0D1F8C40281684046884748B13E
:104DB0003A23022241462846FFF7A8FF27723046D1
:104DC000BDE8F0810020E060FAE710B508B1C260EC
:104DD00007E04FF0FF3010BD521E92B284188B5C7A
:104DE0002374002AF8D1002010BD00002DE9F047FF
:104DF0000646D0F8D402174606EB80008946D0F864
:104E0000C0524FF0FF38D5B3297A29B14946304610
:104E1000BDE8F047FFF764BD05F58054A16989B38B
:104E2000217F090636D4D0F8C402816848468847F5
:104E300028B13A230EE03046FFF768FF1FE0D6F8AE
:104E4000D40206EB8000D0F8C402C1684846884707
:104E500018B1272302224946EDE7D7F80200494658
:104E600000BA20F0FF0278790243E266B7F8070043
:104E700043BA30462367FFF7D0FB002803DA4046E9
:104E8000BDE8F08706E0B4F86400236F4343A069EF
:104E9000984203D02023617F0522CCE74FF4805055
:104EA000834200D3034601202872044805F1100212
:104EB0000178304600F0D0FF0020E1E7F500002047
:104EC0002DE9F0470646D0F8D402174606EB8000DD
:104ED0008A46D0F8C0524FF0FF398DB3297A29B1F4
:104EE00051463046BDE8F047FFF7FABC05F580545F
:104EF000A16911B1217F090606D5617F2023052212
:104F00003046FFF703FF31E0D0F8C4028168504615
:104F100088474FF0050808B13A230AE0D6F8D402D2
:104F200006EB8000D0F8C402C1685046884740B103
:104F30002723022251463046FFF7E8FE85F8088015
:104F400014E057F8020F514600BA20F0FF02F8783B
:104F50000243E266786800BA20F0FF03F879034361
:104F600030462367FFF759FB002802DA4846BDE8C0
:104F7000F087B4F86400236F4343A0699842BCD122
:104F80004FF48050834200D3034601202872044826
:104F900005F110020178304600F05EFF0020E6E7E0
:104FA000F5000020F8B5044640684FF4827398423B
:104FB00021D1A0684FF48065B0F5004F01D0A84220
:104FC0000AD12068066826F04006066060689842AC
:104FD00011D1A068A8420ED000920B460022802179
:104FE000204600F0A5F8002804D0606D40F02000B5
:104FF00060650320F8BD00920B4600220121EFE717
:1050000038B504461248134D4FF47A730068B0FB6C
:10501000F5F0584300906068B0F5827F0DD10B46E3
:10502000009200228021204600F082F870B1606D6D
:1050300040F020006065032038BD009830B1401E6C
:10504000009020688068C0430006F6D5002038BD77
:105050000C00002000366E013EB5044601211448C4
:1050600003F035FA40B91348FDF782FA11490820D8
:10507000C8610846FDF793FA01210D4803F01EFAB6
:1050800098B18DF80840FF24012301AA02A909481C
:105090000094FDF7DEFC08B18DF8044001210448BE
:1050A00003F022FA9DF804003EBDFF203EBD000043
:1050B0001A000020B80100202DE9F0411C461546D9
:1050C0000E46074602F0ECFF0021094803F0F6F90E
:1050D00060B123462A4631463846FDF75BFB002186
:1050E000034803F001FA0020BDE8F0810120FBE74E
:1050F0001A0000202DE9F0411C4615460E460746D1
:1051000002F0CEFF0021094803F0D8F960B1234630
:105110002A4631463846FDF7E7FB0021034803F0F5
:10512000E3F90020BDE8F0810120FBE71A00002030
:105130002DE9F8431E46914688460446089DFBF734
:10514000BDFE401B351AFBF7B9FE0746254800682F
:10515000C0F3CB30684338E0701C37D0FBF7AEFEAD
:10516000C01BA84203D215B1009860B32CE02068A0
:10517000416821F0E00141606068B0F5827F0BD1A9
:10518000A068B0F5004F02D0B0F5806F04D1206860
:10519000016821F040010160A06AB0F5005F09D10B
:1051A0002068016821F4005101602068016841F421
:1051B00000510160012084F85100002084F8500063
:1051C0000320BDE8F8830025401E00902068816818
:1051D00038EA010004D000204845BDD10020F0E7A6
:1051E0000120F9E70C0000204FF400600860400047
:1051F000108000207047002070470020704700207A
:1052000070470020704710B5144608461A03210362
:1052100002F0E6FF40B210BD70B50D4610031E4609
:105220000446202102F06AFF32032146284603F09B
:105230004DF8002070BD70470178407841EA0020A9
:105240007047704730B593B030216846FBF70AF8D5
:1052500014210CA8FBF706F81C480025016841F052
:1052600080510160006800F080501190184801687A
:1052700041F4404101600068022400F44040119074
:1052800001200090000401908001CDE90640042037
:1052900008904820CDE9090403200B906846FCF7EC
:1052A000BBFF08B172B6FEE70CA90F2081E8310000
:1052B0004FF48050CDE90F0502210CA8FCF79CFEAD
:1052C000002801D072B6FEE713B030BD403802406E
:1052D000007000400248016841F4700101607047AD
:1052E00088ED00E010B50448FDF7FAFEBDE8104077
:1052F0000248FDF7F5BE0000C80200205803002058
:1053000010B50448FDF7ECFEBDE810400248FDF77B
:10531000E7BE0000C8020020A003002010B504482A
:10532000FDF7DEFEBDE810400248FDF7D9BE0000E3
:10533000C802002070040020F0B502681D4C1E4D0C
:105340001E4E1F4F4FF0804CA04207D0604505D045
:10535000A84203D0B04201D0B84203D122F070037A
:105360004A681A43A04210D060450ED0A8420CD023
:10537000B0420AD0B84208D0124B984205D0124B26
:10538000984202D0114B984203D122F44073CA686C
:105390001A434B6922F080021A4302608A68C26293
:1053A0000A688262A04201D1096901630121416159
:1053B000F0BD000000000140000400400008004073
:1053C000000C004000400140004401400048014002
:1053D00010B501F01F010123046A8B409C43046255
:1053E000036A8A401343036210BD10B5846842EA21
:1053F000032224F47F440A432243826010BD826862
:1054000022F070020A4342F00701816070470000F9
:1054100030B5026A22F001020262036A42688469BE
:1054200024F073050C682C4323F002058B682B4392
:105430000C4DA84206D123F00805CB6843EA0503CA
:1054400023F0040307D14D6922F4407245EA0205B6
:105450008A6942EA050242608461496841630362E5
:1054600030BD00000000014030B5026A22F0100299
:105470000262026A436884690D6824F4E64444EADF
:1054800005248D6822F0200242EA05120C4DA84244
:1054900006D1CD6822F0800242EA051222F04002D5
:1054A00007D14D6923F4406343EA85038D6943EADC
:1054B00085034360846149688163026230BD0000F6
:1054C0000000014030B5026A22F480720262036A71
:1054D0004268C46923F4007324F073050C682C43FC
:1054E0008D6843EA05230C4DA84206D1CD6823F40C
:1054F000006343EA052323F4806307D14D6922F456
:10550000405242EA05128D6942EA05124260C461C6
:105510004968C163036230BD0000014030B5026AD2
:1055200022F480520262036A4268C4690D6824F45E
:10553000E64444EA05248D6823F4005343EA053326
:10554000064DA84204D14D6922F4804242EA8512F8
:105550004260C46149680164036230BD00000140DB
:1055600010B5046A036A23F001030362836923F020
:10557000F00343EA021324F00A020A438361026241
:1055800010BD10B5036A23F0100303628469036A37
:1055900024F4704444EA023223F0A00343EA0111E8
:1055A0008261016210BD10B5806B0021C185C1848C
:1055B000FDF72CFF10BD01680C3151E8002F22F4DB
:1055C000907241E80023002BF5D10168143151E8B5
:1055D000002F22F0010241E80023002BF5D1016BDE
:1055E000012909D101680C3151E8002F22F0100285
:1055F00041E80023002BF5D1202180F83E10002146
:105600000163704708B590F83E10222901D00220AE
:1056100008BD81684FF48053994201D1026922B1DB
:10562000826A99421BD049B10AE00268816A5268D5
:10563000C2F308020A80816A891C08E0016971B11D
:105640000168496801F07F011170816A491C81621B
:10565000C18D491E0904090CC18503D019E00168F8
:105660004968F1E70168CA6822F02002CA6001684F
:10567000CA6822F48072CA6001684A6922F0010295
:105680004A61202180F83E10016B012903D0FEF70A
:1056900079F8002008BD0021016301680C3151E850
:1056A000002F22F0100241E80023002BF5D1016801
:1056B0000A68D20602D50A6849680091818DFDF713
:1056C000A4FEE6E770B5044600680169E26821F4CB
:1056D000405111430161A1682069E2690143606999
:1056E000104301432068C26849F20C639A430A439D
:1056F000C26020684169A26921F44071114341618F
:1057000031492068884202D03049884202D1FCF7F2
:1057100043FD01E0FCF730FDE26900231921642517
:105720003226B2F5004F626828D0A0FB0101930F2A
:105730009200FAF74DFD0146B0FBF5F06FF018024C
:10574000504301EB800006EB0010B0FBF5F000F0D9
:10575000F002B1FBF5F002EB0012B1FBF5F06FF0D7
:105760001803584301EB800006EB0010B0FBF5F086
:1057700000F00F0021681044886070BDA0FB01019B
:1057800092185B41FAF724FD0146B0FBF5F00201E7
:10579000B1FBF5F06FF01803584301EB800006EB06
:1057A000C000B0FBF5F000F0F80002EB4002B1FBE6
:1057B000F5F0584301EB800006EBC000B0FBF5F0BC
:1057C00000F00700D6E7000000100140001401407F
:1057D00081628285C28500210164222280F83E20F8
:1057E00080F83C10016921B10168CA6842F48072F6
:1057F000CA6001684A6942F001024A610068C168F2
:1058000041F02001C160002070472DE9F0411E46A3
:10581000174688460446069D26E0681C24D025B11C
:10582000FBF74CFB801BA8421ED920680C3050E8C7
:10583000001F21F4D07140E80012002AF5D1206841
:10584000143050E8001F21F0010140E80012002A46
:10585000F5D1202084F83D0084F83E00002084F833
:105860003C000320BDE8F0812068016838EA0100AF
:1058700004D00020B842D0D00020F3E70120F9E79F
:105880000148FDF7C5BD00002C0400200148FDF7CC
:10589000BFBD0000E803002010B5D0F8B8220024F6
:1058A0005268904700B10324204610BD0020704785
:1058B00000207047134610B50A46002100F0CCFACC
:1058C000002010BD134610B50A46002100F069FB08
:1058D000002010BD10B50446802100F047FB204693
:1058E000BDE81040002100F041BB10B50521C0F813
:1058F000941200231A46194600F0AEFA002010BD9B
:1059000010B50223C0F8943282611346C2610A4680
:10591000002100F046FB002010BD10B50421C0F8A6
:10592000941200231A46194600F03BFB002010BDDC
:1059300010B50A46024903A000F003F9004810BD63
:10594000480900204D534320436F6E66696700008D
:1059500012200880004870476800002010B50A46F1
:10596000024903A000F0EDF8004810BD48090020EE
:105970004D534320496E7465726661636500000093
:1059800004200880004870476400002010B50A46D3
:10599000024903A000F0D5F8004810BD48090020D6
:1059A00053544D6963726F656C656374726F6E6991
:1059B0006373000010B50A46024903A000F0C1F865
:1059C000004810BD4809002053544D3332204D612A
:1059D00073732053746F72616765000010B51A20ED
:1059E00008800A480168001D0468001D0068081846
:1059F00009D008220649FEF722F905490422103190
:105A00002046FEF71CF90248801E10BD107AFF1FC9
:105A10007E000020F8B504460020ADF8000048885C
:105A20000D46010A08295FD2DFE801F05E0409177C
:105A30005E5E3D45D4F8B412207C0A6819E0207CF3
:105A400002260028D4F8B80205D0C16A6846884703
:105A50000146467039E0816AF8E7C0B2062843D2B1
:105A6000DFE800F0030B1115191DD4F8B4024268E9
:105A700006E069469047014627E0D4F8B402826800
:105A80008AB3207CF5E7D4F8B402C268F8E7D4F80A
:105A9000B4020269F4E7D4F8B4024269F0E7D4F83A
:105AA000B4028269ECE7207CE8B9D4F8B802416B13
:105AB00068468847DFE7207CA8B9D4F8B802016BB4
:105AC00068468847014607204870EA888AB1BDF8D1
:105AD000000040B1824200D90246ADF800202046C5
